:100D3C0000111F2B37424D57616A727A81898F9649
:100D4C009CA1A7ACB0B5B9BDC10A0C0D0C0D110C12
:100D5C0000050A080A0D080005050605060D050024
:100D6C000202060204040804040602040408020237
:100D7C0002060204040804174C6170757461000AC1
:100D8C000D0C050508050A0A0806080806050305E2
:100D9C00030103050002020206020202060202021D
:100DAC00060202020601010202060816526F6D26A7
:100DBC004A756C69004E6F207265636F7264210016
:100DCC007573657220706C6179696E6700757365F7
:100DDC0072207265636F7264696E672E006F766540
:100DEC0072666C6F772C72657374617274206F729B
:100DFC002073617665007265636F7264207361762F
:100E0C00656400616363657373206572726F722130
:100E1C0000696E707574206D75736963206E616DF9
:100E2C00653A006D656D6F72792066756C6C21008A
:100E3C006661696C6564216D656D6F727920636C98
:100E4C006561726564217265736574210064656CFB
:100E5C006574652073756365737366756C6C792145
:100E6C0000706175736500454550524F4D20636CA1
:100E7C006561726564210057656C636F6D652164F3
:0F0E8C00657369676E65642062792077716C0009
:10141700015F000160000161000121000139010144
:0E1427005200015D00015E00015100015C00F9
:100B2D00D2A9D2ABD2B9D2BB758912D2A8D2AFD2CB
:100B3D0088D28A1200061212D1E4F572E572900E77
:100B4D008393601BAF720572EF93FF12148FE572E2
:100B5D00D3940F40E7E5722430FF12154B80DD7FF3
:100B6D00D07E071214547FFF7E07121196EF64A5F5
:100B7D006069C2AFE4F572E57275F010A4FFAEF0D6
:100B8D00E4FD12128DB3501E7F011213FCE4F572B9
:100B9D00E572900E0F93600CAF720572EF93FF121A
:100BAD00148F80EC80FE0572E572C3940840C87DF9
:100BBD00A57FFF7E0712128DB3501E7F011213FC0D
:100BCD00E4F572E572900E0F93600CAF720572EF43
:100BDD0093FF12148F80EC80FED2AF900D83E493BF
:100BED00F55DE4F572E572C3955D5020E572900DEB
:100BFD005593FF74212572F8A607E572900D6C933D
:100C0D00FF74392572F8A607057280D9E4F572E5EF
:100C1D0072900D8493FF600B74522572F8A6070530
:100C2D007280EC74522572F8E4F61211EFE5219002
:100C3D000D3C93F58C858C8AE4F58BF58DD28CD299
:100C4D008E308503020D09C2AFE4F572E57275F0C1
:100C5D0010A4FFAEF0E4FD12128DB350277F0112E8
:100C6D0013FCE4F572E572900E0F93600CAF7205F4
:100C7D0072EF93FF12148F80EC7DFF7FFF7E0712C2
:100C8D00128D80FE0572E572C3940840BFE55C606D
:100C9D0003B402227F1112154BE4F5727F1F12135C
:100CAD00FCE4FF12148F0572E572C3941040ED7FC2
:100CBD001112154B80057F011213FCE4F572E572DC
:100CCD00900E7393600CAF720572EF93FF12148F39
:100CDD0080EC7FE87E031214543085FDE55C6003E3
:100CED00B40213E4F5727F1B1213FC0572E572C397
:100CFD00941040F28004C28EC2CAD2AF3086030275
:100D0D000C4EA28EE433FF25E0F572C28EA28CE468
:100D1D00332572F572C28CC2AF3086FDD2AFE5724B
:0F0D2D0024FF928CE572C31324FF928E020C4EAA
:03000B000213AE2F
:1013AE00C0E0C0D075D000C000055FE55FB4040D8D
:1013BE0074212561F8E66002B2A6755F00D000D0F8
:0413CE00D0D0E03269
:03001B0002105C74
:10105C00C0E0C083C082C0D075D000C000C006C044
:01106C00077C
:10106D00E560C394FF50020560E55CB40308758B21
:10107D0000758D00803E74392561F8E66560702E2F
:10108D00C28CE55D14B56105756100800205617462
:10109D00212561F8E6900D3C93F58AF58C7560007D
:1010AD00E4FFE4FE0EBE28FC0FBFFFF6D28C758B5D
:0410BD0000758D002D
:0F10C100D007D006D000D0D0D082D083D0E0327C
:0300030002001EDA
:10001E00C0E0C0F0C083C082C0D075D000C000C0A8
:0D002E0001C002C003C004C005C006C00729
:10003B00E5A0F45407B408004003020B1090004FE6
:10004B00F82828730200670200E302023F020381D3
:10005B000204C30204EB02052102093EC28CC28ECC
:10006B00900D83E493F55D756200E562C3955D5079
:10007B0020E562900D5593FF74212562F8A607E5E4
:10008B0062900D6C93FF74392562F8A607056280A8
:10009B00D9756200E562900D8493FF600B74522555
:1000AB0062F8A607056280EC74522562F87600129E
:1000BB0011EFE521900D3C93F58C858C8A755F00D3
:1000CB00756000756100758B00758D00D28CD28EBA
:1000DB00C2AA755C00020B10C28CC28E855163756F
:1000EB005100756200E56275F010A4FFAEF01211BD
:1000FB0096EF600205510562E562C3940840E6E5A0
:10010B005170627F1112154B7562007F1F1213FC29
:10011B00E4FF12148F0562E562C3941040ED7F116A
:10012B0012154B756200E562900DC193600CAF62C6
:10013B000562EF93FF12148F80EC7FD07E071214B1
:10014B00547562007F1B1213FC0562E562C39410A9
:10015B0040F2856351E55C64057003020B10D28C91
:10016B00D28E020B10755E01756200E56275F010A0
:10017B00A4FFAEF0121196AD5EC3E551955EFDE4A2
:10018B009400CD2401CD3400FCEF6D7001EC706F49
:10019B00E56275F010A42401FFE435F0FE12119610
:1001AB008F5D756300E56275F010A42402FFE435E2
:1001BB00F0FE7C00EF2563FFEC3EFE1211967452AD
:1001CB002563F8EFF66004056380DAE56275F020CD
:1001DB00A42400FFE5F03401FE7B007A007921AD09
:1001EB005D1210D0E56275F020A42400FFE5F03419
:1001FB0002FE7B007A007939AD5D1210D0800C05C0
:10020B0062E562C3940850030201761211F5E521F1
:10021B00900D3C93F58C858C8A755F00756000752D
:10022B006100758B00758D00D28CD28EC2AA755C65
:10023B0001020B10E55C146068046003020B10E50F
:10024B005EC395514003020B10C28CC28E055E90AB
:10025B000DB7E493F55D756200E562C3955D5020C3
:10026B00E562900D8B93FF74212562F8A607E5627A
:10027B00900DA193FF74392562F8A607056280D90A
:10028B00756200E562900DB893FF600B74522562A6
:10029B00F8A607056280EC74522562F8760002031B
:1002AB005DE55EC395514003020B10C28CC28E05F7
:1002BB005E756200E56275F010A4FFAEF012119648
:1002CB00AD5EC3E551955EFDE49400CD2401CD34C4
:1002DB0000FCEF6D7001EC706DE56275F010A424FD
:1002EB0001FFE435F0FE1211968F5D756300E56238
:1002FB0075F010A42402FFE435F0FE7C00EF2563BB
:10030B00FFEC3EFE12119674522563F8EFF6600473
:10031B00056380DAE56275F020A42400FFE5F03474
:10032B0001FE7B007A007921AD5D1210D0E562757C
:10033B00F020A42400FFE5F03402FE7B007A007964
:10034B0039AD5D1210D00562E562C394085003020B
:10035B0002BF1211F5E521900D3C93F58C858C8A2B
:10036B00755F00756000756100758B00758D00D22F
:10037B008CD28E020B10E55C146068046003020BD8
:10038B0010E55ED394015003020B10C28EC28C1584
:10039B005E900D83E493F55D756200E562C3955D38
:1003AB005020E562900D5593FF74212562F8A60746
:1003BB00E562900D6C93FF74392562F8A607056210
:1003CB0080D9756200E562900D8493FF600B7452C7
:1003DB002562F8A607056280EC74522562F8760058
:1003EB0002049FE55ED394015003020B10C28EC230
:1003FB008C155E756200E56275F010A4FFAEF0120D
:10040B001196AD5EC3E551955EFDE49400CD2401DC
:10041B00CD3400FCEF6D7001EC706DE56275F01082
:10042B00A42401FFE435F0FE1211968F5D75630075
:10043B00E56275F010A42402FFE435F0FE7C00EFBA
:10044B002563FFEC3EFE12119674522563F8EFF60E
:10045B006004056380DAE56275F020A42400FFE5F3
:10046B00F03401FE7B007A007921AD5D1210D0E5EE
:10047B006275F020A42400FFE5F03402FE7B007AC5
:10048B00007939AD5D1210D00562E562C394085056
:10049B00030204011211F5E521900D3C93F58C85B7
:1004AB008C8A755F00756000756100758B00758DAA
:1004BB0000D28CD28E020B10C28EC28C7F01121313
:1004CB00FC756200E562900DCC93600CAF62056227
:1004DB00EF93FF12148F80ECD2AA755C02020B1003
:1004EB00C28EC28C7F011213FC756200E562900D07
:1004FB00D993600CAF620562EF93FF12148F80ECFF
:10050B00D2AA758D00758B00756000756100755CE6
:10051B0003D28E020B10756303E55C640360030268
:10052B000B10C28EC28CC2AA755100756200E562B7
:10053B0075F010A4FFAEF0121196EF600205510595
:10054B0062E562C3940840E6E551C39408401F7FFF
:10055B00011213FC756200E562900E2F937003027B
:10056B000B10AF620562EF93FF12148F80E97F01CE
:10057B001213FC756200E562900E1D93601BAF6257
:10058B000562EF93FF12148FE562D3940F40E7E5FA
:10059B00622430FF12154B80DD30800C3081093026
:1005AB0082063083032084F13084FD7F011213FC1B
:1005BB007F0F1213FC75620020840302073D20801D
:1005CB0050E563D3940240047F008004E56304FF8D
:1005DB008F63E56370047F41800BE563B401047F97
:1005EB006180027F3074522562F8A607E562D394CE
:1005FB000F4007E5622430FF8002AF6212154B7487
:10060B00522562F8E6FF12148F7F131213FC308011
:10061B00FD20816074522562F81674522562F8E64B
:10062B00641F7015E56370047F5A800BE563B4019A
:10063B00047F7A80027F39A60774522562F8E6FFA1
:10064B0064406009EF64606004EFB42F027620E52C
:10065B0062D3940F4007E5622430FF8002AF621231
:10066B00154B74522562F8E6FF12148F7F13121389
:10067B00FC3081FD20826074522562F8067452258D
:10068B0062F8E664217015E56370047F41800BE529
:10069B0063B401047F6180027F30A6077452256228
:1006AB00F8E6FF645B6009EF647B6004EFB43A0229
:1006BB007620E562D3940F4007E5622430FF800279
:1006CB00AF6212154B74522562F8E6FF12148F7F3E
:1006DB00131213FC3082FD3083030205C3E562C3A2
:1006EB0094085006E56204FF8002AF628F62E563F7
:1006FB0070047F41800BE563B401047F6180027F4E
:10070B003074522562F8A607E562D3940F4007E5D3
:10071B00622430FF8002AF6212154B74522562F8CF
:10072B00E6FF12148F7F131213FC3083030205C3F1
:10073B0080F874532562F876007F0C1213FC7562F7
:10074B0000E56275F010A4FFAEF0121196EF600396
:03075B000208F29F
:10075E00756303E56275F020A42400FFE5F0340113
:10076E00FE7B007A0079217D10121135B3500AE517
:10077E006394004004156380DAE563D3940050035C
:10078E000208FE756303E56275F020A42400FFE500
:10079E00F03402FE7B007A0079397D10121135B3E8
:1007AE00500AE56394004004156380DAE563D39440
:1007BE000050030208FE756303E56275F020A42461
:1007CE0010FFE5F03401FE7B007A0079317D1012C6
:1007DE001135B3500AE56394004004156380DAE5E1
:1007EE0063D3940050030208FE756303E56275F04F
:1007FE0020A42410FFE5F03402FE7B007A00794934
:10080E007D10121135B3500AE56394004004156350
:10081E0080DAE563D3940050030208FE7564007419
:10082E00522564F8E6603B756303E56275F010A42B
:10083E002402FFE435F0FE7C00EF2564FFEC3EFE63
:10084E0074522564F8E6FD12128DB3500AE56394D6
:10085E00004004156380D3E563D39400400405641F
:10086E0080BD756303E56275F010A42402FFE435C4
:10087E00F0FE7C00EF2564FFEC3EFEE4FD12128DCF
:10088E00B3500AE56394004004156380D8E563D342
:10089E009400405C756303E56275F010A42401FFBB
:1008AE00E435F0FEAD6112128DB3500AE56394008B
:1008BE004004156380E1E563D39400403375630310
:1008CE00E56275F010A4FFAEF0E55104FD12128D35
:1008DE00B3500AE56394004004156380E3E563D3E7
:0408EE009400800CE6
:1008F2000562E562C39408500302074C7F0112139C
:10090200FCE563D394005017756200E562900E0F08
:10091200936023AF620562EF93FF12148F80EC7530
:100922006200E562900E0293600CAF620562EF9383
:10093200FF12148F80EC755C04020B10E55C6401FD
:100942006003020B10C28EC28C756200E56275F004
:1009520010A4FFAEF01211968F63AF5EC3E55195FE
:100962005EFFE49400CF2401CF3400FEE563B507B7
:100972001AE4B50616E56275F010A4FFAEF0E4FDC8
:1009820012128DB350057562008040AF5EC3E5510F
:10099200955EFFE49400CF2401CF3400FED3E563DB
:1009A2009FEE6480F87480984018E56275F010A498
:1009B200FFAEF0E56314FD12128DB35005756200AF
:1009C20080090562E562C394084081E5627021C234
:1009D200AF7F011213FC756200E562900E3C9370CA
:1009E20003020B10AF620562EF93FF12148F80E9CE
:1009F2001551E55ED395514006E55E14FF8002AFC6
:100A02005E8F5E7F011213FC756200E562900E59E3
:100A120093600CAF620562EF93FF12148F80EC7F3C
:100A2200D07E07121454E55170227F011213FC7517
:100A32006200E562900DC193600CAF620562EF93B4
:100A4200FF12148F80EC755C05020B10756200E5D5
:100A52006275F010A4FFAEF0121196AD5EC3E551BF
:100A6200955EFDE49400CD2401CD3400FCEF6D7061
:100A720001EC706DE56275F010A42401FFE435F01D
:100A8200FE1211968F5D756300E56275F010A42465
:100A920002FFE435F0FE7C00EF2563FFEC3EFE1220
:100AA200119674522563F8EFF66004056380DAE567
:100AB2006275F020A42400FFE5F03401FE7B007A89
:100AC200007921AD5D1210D0E56275F020A42400FA
:100AD200FFE5F03402FE7B007A007939AD5D121039
:100AE200D00562E562C394085003020A511211F55F
:100AF200E521900D3C93F58C858C8A755F007560BD
:100B020000756100758B00758D00D28CD28EC28902
:100B1200D007D006D005D004D003D002D001D00037
:0B0B2200D0D0D082D083D0F0D0E032E1
:03001300020E9B3F
:100E9B00C0E0C0F0C083C082C0D075D000C000C01D
:0D0EAB0001C002C003C004C005C006C0079E
:100EB800E55C64037059C28EE561D39417402E7FB8
:100EC800011213FC757100E571900DE9937003022E
:100ED8000FB5AF710571EF93FF12148FE571D394BD
:100EE8000F40E4E5712430FF12154B80DAE560D33A
:100EF8009403401074212561F8760074392561F84F
:100F0800A6600561758D00758B00756000D28EE551
:100F1800A0F4543FFF131313541FFF25E004F5708A
:100F2800D394064014E570D3940E4007E57024FE70
:100F3800FF8008E57014FF8002AF708F70EF900D8E
:100F48003C93F58C858C8A755F00D28C30B3FDC2DA
:100F58008CE55C64037056C28EE561D39417402B10
:100F68007F011213FC757100E571900DE993603DE6
:100F7800AF710571EF93FF12148FE571D3940F4091
:100F8800E7E5712430FF12154B80DDE560D394004E
:100F9800401074212561F8A67074392561F8A6609F
:0D0FA8000561758D00758B00756000D28E9F
:100FB500D007D006D005D004D003D002D001D00090
:0B0FC500D0D0D082D083D0F0D0E0323A
:0611EF00755E017551025E
:1011F5007F011213FCE55E2430FF12148F7F2F123E
:10120500148FE5512430FF12148F7F2012148FE4C0
:10121500F57374522573F8E6601EAF730573745247
:101225002FF8E6FF12148FE573D3940B40E4E573B2
:081235002430FF12154B80DA92
:01123D00228E
:10152100C2B1D2B012000ED2B112000EC2B002008E
:011531000EAB
:05000600C2B00215214B
:1014FD00D2B112000ED2B012000EC2B112000EC245
:02150D00B0220A
:10143600E4F56DF56CE56D25E0F56D1214BF50020F
:0D144600056D056CE56CC3940840EAAF6DC0
:011453002276
:10138200E4F57AF57912000ED2B112000ED2B01243
:10139200000EE57A25E0F57A30B103437A01C2B056
:0B13A2000579E579C3940840DCAF7AC0
:0113AD00221D
:1014A800D2B112000ED2B012000E30B105C2B07F18
:0714B8000122C2B07F0022F7
:02134E008F7995
:10135000E4F57A12000EE5795480FFBF8004D2B123
:101360008002C2B1D2B012000EC2B0AF797801EFE4
:1013700008800123D8FDF579057AE57AC394084001
:01138000D29A
:011381002249
:04119600AD07AC06EF
:10119A00AF048D77EF25E0F5781214FDE57824A0E9
:1011AA00FF12134E1214A8BF01061215217FFF2247
:1011BA00AF7712134E1214A8BF01061215217FFF32
:1011CA00221214FDE57824A1FF12134E1214A8BFAF
:1011DA0001061215217FFF221213828F76D2B112D5
:0411EA001521AF76A6
:0111EE0022DE
:06128D008E738F748D7555
:10129300121196EFB57502D322E573FF25E024A062
:1012A3007811F6C2B4120006AF747811E6FD121479
:1012B300D55013AF751213D2500C1215217F0A7E2D
:0D12C300001214548004D2B4C322D2B4D35C
:0112D00022FB
:1014BF00D2B012000E30B107C2B012000ED322C24A
:0614CF00B012000EC32262
:0213D2008F7812
:1013D400E4F579E5783392B1E57825E0F5781214EF
:1013E400BF0579E579C3940840E9D2B11214BFB3BB
:0113F40022D6
:1014D5008F768D771214FDAF771213D25005AF7644
:0514E5000213D2C32236
:10150F00C2B112000ED2B012000EC2B012000ED233
:02151F00B122F7
:0C10D0008E658F668D678B688A69896A5F
:1010DC00E565FF25E024A0780FF60408F61200065B
:1010EC00AF66780FE6FD1214D5503D1214FD1200B8
:1010FC000E7810E6FF1213D2502EE4F56BE56BC39D
:10110C0095675021121436AB68AA69A96A856B825F
:10111C00758300EF12126BE56714656B6003121593
:08112C000F056B80D81215219C
:011134002298
:0C1311008E088F098D0A8B0B8A0C890D49
:10131D00E4F50EE50EC3950A50257E00E509250E70
:10132D00FFEE3508FEAB0BAA0CA90D850E82758359
:10133D000012123EFD12128D400122050E80D4D3F3
:01134D00227D
:0C1135008E658F668D678B688A69896AF9
:10114100E565FF25E024A0780FF6C2B4120006AFD2
:1011510066780FE6FD1214D54003D2B422E4F56B94
:10116100E56BC395675020AB68AA69A96A856B8254
:1011710075830012123EFF1213D24007121521D2BD
:10118100B4C322056B80D91215217F0C7E00121485
:0411910054D2B4D3AD
:011195002237
:0B1472008C907F3212147DD2B77F32C5
:10147D00AD071FED600BE4FEEEC3940550F20E8038
:01148D00F767
:01148E00223B
:1014EA00C2B5D2B6C2B77F0A121476E59033920219
:0214FA00A2024C
:0114FC0022CD
:0713F5007F6412147D7F30BC
:1013FC00AC071214EA40FBC2B5C2B600001214725C
:0B140C00C2B77F3212147D7590FF22E2
:10148F00AC071214EA40FBD2B5C2B6121472C2B73F
:09149F007F3212147D7590FF22CA
:1012D1007590FF7FC81213F71213F51213F57F648F
:1012E10012147D7F381213FC7F3212147D7F081295
:1012F10013FC7F3212147D7F011213FC7F32121412
:101301007D7F061213FC7F3212147D7F0C0213FCC9
:07154B00EF4480FF0213FCD6
:03000E00000022CD
:09154100E4FF12000E0FBF04F9D3
:01154A00227E
:06155200121541021541D3
:04145400AD07AC062E
:10145800D3ED9400EC94004010E4FE1215520EBE39
:091468000AF9ED1D70EA1C80E791
:011471002258
:0F15320075985075CBFF75CADC75C834D29922F5
:03000000020FD01C
:0C0FD000787FE4F6D8FD75817A021017D6
:10123E00BB010CE58229F582E5833AF583E0225065
:10124E0006E92582F8E622BBFE06E92582F8E222AF
:0D125E00E58229F582E5833AF583E49322C9
:10126B00F8BB010DE58229F582E5833AF583E8F0B9
:10127B00225006E92582C8F622BBFE05E92582C865
:02128B00F2224D
:100FDC00020B2DE493A3F8E493A34003F68001F2F3
:100FEC0008DFF48029E493A3F85407240CC8C33316
:100FFC00C4540F4420C8834004F456800146F6DFE5
:10100C00E4800B0102040810204080901417E47E49
:10101C00019360BCA3FF543F30E509541FFEE493D9
:10102C00A360010ECF54C025E060A840B8E493A3A0
:10103C00FAE493A3F8E493A3C8C582C8CAC583CACB
:10104C00F0A3C8C582C8CAC583CADFE9DEE780BE83
:0114350000B6
:00000001FF
